:02000002D0002C
:1040000000400D00805B0D00000006000C00050163
:0840100004017C050000000022
:0440180020560D0021
:10401C0009480A49884208B505D0094A824202D0AB
:10402C00121A01F0B3FA0748074A0021121A01F0DC
:10403C00B8FA014808BD00BF58E30320F05A0D0040
:10404C00C0E30320C0E30320F0E7032070B500F0C9
:10405C00EFFD074C074BE41AA40800251E46A542A9
:10406C0004D056F8253098470135F8E770BD00BFED
:10407C00F05A0D00B05A0D0000F01CB808B500F055
:10408C0039F9BDE8084000F0A1BD00F05DBC00F0BE
:10409C005BBC0078B0FA80F04009704701230370D4
:1040AC007047000008B500F013FB014B186008BD09
:1040BC004CE7032008B500F0A9FE4FF4165100F0B0
:1040CC0099FE00F0A3FE03681B69984720B9FFF71F
:1040DC00E9FF00F021FCF4E700F098FE0C4900F039
:1040EC00E2FC0C484FF4614100F063F9094800F020
:1040FC0012FA30B100F08AFE0749BDE8084000F022
:10410C00D2BC00F083FE054900F0CDFCFEE700BFF9
:10411C0034560D00C4E303203F560D0059560D00D4
:10412C0038B5054600F072FE614900F0BCFC6148F0
:10413C0000F020FA0446032815D8DFE800F0020C42
:10414C00081000F063FE5C4900F0ADFC12E000F0DA
:10415C005DFE5A49E9E700F059FE5949E5E700F0E0
:10416C0055FE5849E1E700F051FE574900F09BFC21
:10417C00002CDCD101214F4800F01AFA0628044625
:10418C005BD04AD8002845D100F040FE4F4900F0E2
:10419C008AFC00F03BFE4E4900F085FC4FF4FA60BF
:1041AC0000F0D6FC434800F0E5F90228FAD100F003
:1041BC002DFE484900F077FC3E4800F0DBF9044640
:1041CC00032817D8DFE800F0020E081200F01EFEDC
:1041DC00394900F068FC14E000F018FE374900F093
:1041EC004FFCE9E700F012FE3549E3E700F00EFE64
:1041FC003449DFE700F00AFE334900F054FC002C90
:10420C00DAD102212B4800F0D3F90628044614D049
:10421C0003D838B1012C33D042E0072C11D0152C27
:10422C000FD03DE000F0F2FD284900F03CFC2148A5
:10423C0000F0DFF90446C8B907E000F0E7FD2649B5
:10424C0031E000F0E3FD25492DE000F0DFFD2449CD
:10425C0000F029FC2946174800F0EAF9044668B931
:10426C0000F0D4FD1F4900F01EFC38BD012807D01A
:10427C000A2815D100F0CAFD1B4914E0012803D10E
:10428C0000F0C4FD0E490EE00B2803D100F0BEFD7A
:10429C00164908E0182803D100F0B8FD144902E0D3
:1042AC0000F0B4FD084900F0FEFB204638BD00BF0D
:1042BC007C560D00C4E303209F560D00E2570D0001
:1042CC00AB560D00BF560D00CD560D00DB560D0044
:1042DC00EB560D002D570D00F9560D0009570D002A
:1042EC0045570D0070570D0055570D0078570D00B0
:1042FC0099570D0010B500F089FD1B4900F0D3FB58
:10430C00002400F083FD03681B69984720B9FFF770
:10431C00C9FE00F001FBF4E700F078FD03685B696F
:10432C009847C0B2A0F13003092B07D804EB8404E2
:10433C0000EB4404303C04F0FF04E2E700F066FDBF
:10434C000A4900F09DFB00F061FD0A22214600F0B5
:10435C00E3FB2046FFF7E4FE20B9FFF7A3FE00F0D5
:10436C00DBFAF6E710BD00BFB0570D00E4570D00A7
:10437C0008B500F095F9094B00221A705A804FF6D7
:10438C00FF729A80032000F053FA00F0C5FDBDE8DF
:10439C0008400146024800F005B800BFD8E30320EE
:1043AC00C4E30320002282604FF0FF32C26001613F
:1043BC007047006900F0ACBD2DE9F0470446006978
:1043CC00089F984603680E469B68EF211546984750
:1043DC002069036801219B68984720690368310EA6
:1043EC009B68984720690368C6F307419B68984708
:1043FC0020690368C6F307219B6898472069036806
:10440C00F1B29B6898472069036829469B689847D6
:10441C00206903684FEA28299B6849469847206918
:10442C0003685FFA88F631469B68984709EB0502EA
:10443C009519A8F102080026206906F10109036804
:10444C00F6B246459B6806DAB95D9847BA5D1544E5
:10445C00ADB24E46F0E7C5F30721984720690368D3
:10446C00E9B29B68BDE8F04718472DE9F0410025FB
:10447C0086B006460C461746A846306903681B6989
:10448C00984740B901350120ADB200F061FBBD4247
:10449C00F3D3FF203CE0306903685B69984706ABB7
:1044AC00434403F8140CB8F1000F03D19DF8043009
:1044BC00EF2BE2D108F101085FFA88F8B8F1080F88
:1044CC00DBD99DF80430EF2B21D19DF80530012B61
:1044DC001DD19DF80C309DF80B0043EA00200238EA
:1044EC0080B200F10A039845C7DD9DF80A302370AD
:1044FC0000235A1CDBB2834207D206ADE1182B44D1
:10450C0013F80B3C4B701346F3E7C0B200E0FE20EF
:10451C0006B0BDE8F0817FB513238DF808308368B1
:10452C008DF80C301A0E02AE8DF809201A0C8DF88D
:10453C000A2000961A0AC1688DF80B20054607233D
:10454C000122FFF739FF41F2883231462846FFF746
:10455C008CFF01284FF0000409D19DF80830072B7F
:10456C0005D19DF80900B0FA80F0400900E0204622
:10457C0004B070BD30B585B004AC012204F8042D34
:10458C000094C16805460323FFF716FF41F28832F9
:10459C0021462846FFF769FF012803D09DF80C300F
:1045AC00072B02D19DF80D0000E0FF2005B030BDB7
:1045BC0030B585B003AD0223009504468DF80C3060
:1045CC008DF80D100423C1680122FFF7F5FE41F2AE
:1045DC00883229462046FFF748FF012803D09DF872
:1045EC000C30072B02D19DF80D0000E0FF2005B028
:1045FC0030BD30B585B004AC052304F8043D0094FF
:10460C00C168054603230122FFF7D6FE41F288322A
:10461C0021462846FFF729FF012803D09DF80C30CE
:10462C00072B02D19DF80D0000E0FF2005B030BD36
:10463C0030B585B00D128DF80E5003AD00950623E4
:10464C00012204468DF80F10C1688DF80C308DF8DE
:10465C000D20FFF7B1FE41F2883229462046FFF7C4
:10466C0004FF012803D09DF80C30072B02D19DF8D4
:10467C000D0000E0FF2005B030BD00F011B80000C7
:10468C0008B5024B1B689B68019308BD68020300C8
:10469C0008B5024B1B68DB68019308BD6802030078
:1046AC0008B5024B1B681B68019308BD2C02030064
:1046BC0008B5024B1B68DB69019308BD300203008F
:1046CC0008B5024B1B685B68019308BD1802030018
:1046DC0008B5024B1B685B69019308BD1802030007
:1046EC0008B5024B1B689B68019308BD4802030088
:1046FC0008B5024B1B681B69019308BD48020300F7
:10470C0008B5024B1B685B69019308BD48020300A6
:10471C0008B5024B1B681B6B019308BD48020300D4
:10472C0008B5024B1B685B6C019308BD4802030083
:10473C0008B5024B1B685B69019308BD640203005A
:10474C0008B5024B1B681B68019308BD3C020300B3
:10475C0008B5024B1B68DB68019308BD3C020300E3
:10476C0008B5024B1B681B69019308BD3C02030092
:10477C0008B5024B1B685B69019308BD3C02030042
:10478C0008B5024B1B689B69019308BD3C020300F2
:10479C0008B5024B1B68DB69019308BD3C020300A2
:1047AC0008B5024B1B689B6A019308BD3C020300D1
:1047BC0008B5024B1B68DB6A019308BD3C02030081
:1047CC0008B5024B1B681B68019308BD4C02030023
:1047DC0008B5024B1B685B68019308BD4C020300D3
:1047EC0008B5024B1B681B69019308BD4C02030002
:1047FC0008B5024B1B685B69019308BD4C020300B2
:10480C0008B5024B1B689B69019308BD4C02030061
:10481C0008B5024B1B68DB69019308BD4C02030011
:10482C0008B5024B1B681B6A019308BD4C020300C0
:10483C0008B5024B1B685B68019308BD200203009E
:10484C0008B5024B1B685B69019308BD200203008D
:10485C0008B5034B1B68D3F88830019308BD0000E2
:10486C002002030008B5034B1B68D3F89430019366
:10487C0008BD00002002030008B5024B1B685B68F2
:10488C00019308BD4002030008B5024B1B689B68EE
:10489C00019308BD4002030008B5024B1B68DB689E
:1048AC00019308BD4002030008B5024B1B681B694D
:1048BC00019308BD4002030008B5024B1B685B69FD
:1048CC00019308BD4002030008B5024B1B689B69AD
:1048DC00019308BD4002030008B5024B1B68DB695D
:1048EC00019308BD4002030008B5024B1B681B6A0C
:1048FC00019308BD4002030008B5024B1B681B6BFB
:10490C00019308BD4002030008B5024B1B685B6BAA
:10491C00019308BD4002030008B5024B1B689B685D
:10492C00019308BD4402030008B5024B1B68DB6B06
:10493C00019308BD4402030008B5024B1B681B68B9
:10494C00019308BD1C02030008B5024B1B685B6891
:10495C00019308BD1C020300002211464068FFF7BA
:10496C00C3BF002211464068FFF7CEBF002240684B
:10497C00FFF7C2BF002281F001014068FFF7ACBF16
:10498C0000231A4619464068FFF79EBF00231A46BB
:10499C0019464068FFF790BF002211464068FFF7A8
:1049AC0083BF002211464068FFF76EBF0022022130
:1049BC004068FFF771BF00231A464068FFF75CBFE1
:1049CC00024B03225A60024A1A607047E0E303204C
:1049DC00FC570D00704710B51021044600F07DFC0B
:1049EC00204610BD70B5084B0360044600250E46EA
:1049FC0040F80C5FFFF78CFE30462671FFF758FE2F
:104A0C00A560204670BD00BF30580D00044B00203F
:104A1C004FF6FF72187058809A80FFF709BF00BFDD
:104A2C00E8E30320024800230360FFF779BE00BFD0
:104A3C00F0E30320F8B506460D468F180024BD425E
:104A4C000CD0336815F8011B9B683046984700283A
:104A5C0001DB0444F3E7002C08BF04462046F8BDF4
:104A6C0070B505460C46084649B100F0CBFD2B68E5
:104A7C00024621462846DB68BDE87040184770BDE9
:104A8C0008B5FFF7EDFF08BD03689B68184738B5FC
:104A9C000D210546FFF7F8FF0A2104462846FFF7CB
:104AAC00F3FF204438BD38B50546FFF7D9FF04465F
:104ABC002846FFF7ECFF204438BD30B58BB00B46D1
:104ACC0000218DF82410012A98BF0A220DF123042D
:104ADC00B3FBF2F505FB123303F0FF03092B94BF74
:104AEC0030333733DBB2214604F801392B46002D25
:104AFC00EED1FFF7B5FF0BB030BD10B42AB9036887
:104B0C005DF8044B9B68C9B21847D2B25DF8044BF0
:104B1C00FFF7D3BFFFF7F1BF38B50546FFF7EDFF41
:104B2C0004462846FFF7B3FF204438BD014B024A28
:104B3C001A607047F4E30320AB580D00024B1A685F
:104B4C00024B1A60704700BF58E30320F8E30320C0
:104B5C000021FFF775BE10B58368044613B103221C
:104B6C0001469847204610BD10B50446FFF7F3FFE9
:104B7C00204610BD0348044A04490023836000F01A
:104B8C00A7BB00BFFCE30320C0E30320754B0D0063
:104B9C0008B50C4B33B100F039F903681B69984721
:104BAC00002809DC084B63B100F0B6F903681B69F7
:104BBC009847002803DC08BDAFF30080F2E7AFF3A1
:104BCC00008008BD000000000000000008B5FFF7E1
:104BDC00DFFFFFF77DFD014B186008BD4CE703209C
:104BEC0007B5002300931A466FF07701FFF73AFEE2
:104BFC0003B05DF804FB000007B543880A2B08D00E
:104C0C00502B09D1094B1B683BB103B05DF804EB89
:104C1C001847FFF7E5FF06E0002300931A466FF0F4
:104C2C007701FFF71FFE03B05DF804FB0CE40320D3
:104C3C0010B5FFF745FD044600F0BCFC074B13B163
:104C4C002046AFF3008000210448FFF76DFE0021E1
:104C5C000348BDE81040FFF7FBBD00BF000000009B
:104C6C00054C0D00704710B51821044600F035FBBB
:104C7C00204610BDF0B5037D062B8DB00E4600F11D
:104C8C0004074FF0000402D000F1080518E00CAD49
:104C9C00394605F8304D2F232A460A20FFF748FDE8
:104CAC00284600F0AFFC33680246DB6829463046E4
:104CBC0098470FE024B12E213046FFF7E5FE04445F
:104CCC0015F8011D0A223046FFF724FFBD420444AB
:104CDC00F0D120460DB0F0BD10B5054B04461122A5
:104CEC0040F8043B002100F05CFC204610BD00BFE6
:104CFC0044590D000346074A10B543F8042B01F143
:104D0C00100251F8044B43F8044B9142F9D10A7844
:104D1C001A7010BD44590D0010B59DF8084044EAB6
:104D2C00032343EA024242EA016104234160037512
:104D3C0010BD37B50D788B784A78C9780091294623
:104D4C00FFF7EAFF03B030BD41747047704708B5F8
:104D5C000021007CFFF754FD30EA200028BF4FF003
:104D6C00FF3008BD08B50121007CFFF749FD30EA92
:104D7C00200028BF4FF0FF3008BD08B5007CFFF7BE
:104D8C0037FD20EAE07008BD08B5007CFFF728FD70
:104D9C0020EAE07008BD007CFFF742BD10B514217D
:104DAC00044600F09AFA204610BD38B50446007C43
:104DBC000D46FFF71DFD002801DC607C28B129465B
:104DCC00207CFFF725FD20EAE07038BD10B50446C5
:104DDC00002363604FF47A73A360054B23600123B7
:104DEC000846217463741146FFF7EAFC204610BD97
:104DFC0058590D000022007CFFF7EABC10B51422B4
:104E0C000446002100F0CDFB204610BD30B50E4D00
:104E1C0087B001A8FFF7F2FF296811F0010410D147
:104E2C002846FFF736F960B101AA21460748FFF77B
:104E3C00CDFF2846FFF732F9054A0649034800F032
:104E4C0047FA024807B030BD10E4032014E40320F5
:104E5C00C0E30320594D0D0070474174704708B5ED
:104E6C00007CFFF79DFC20EAE07008BD08B5007CD3
:104E7C00FFF776FC20EAE07008BD08B5007CFFF770
:104E8C007FFC30EA200028BF4FF0FF3008BD08B58A
:104E9C00007CFFF76DFC30EA200028BF4FF0FF309C
:104EAC0008BD007CFFF774BC10B51421044600F05B
:104EBC0014FA204610BD70B5457C04460E4625B943
:104ECC00007CFFF76DFC002805DD3146207CBDE839
:104EDC007040FFF73DBC284670BD000010B504467D
:104EEC0008461146002262604FF47A72A260054AAD
:104EFC0022600122207462741A46FFF721FC2046BE
:104F0C0010BD00BF88590D000023007CFFF750BC7A
:104F1C000022FFF7F9BF000038B50C4D296811F0DD
:104F2C00010411D12846FFF7B4F868B1084A094BBF
:104F3C0009482146FFF7D2FF2846FFF7AFF8074A8A
:104F4C000749054800F0C4F9034838BDC0E4032004
:104F5C00C4E403203CE4032028E40320C0E3032042
:104F6C00654E0D00002211464068FFF7BDBC0022C3
:104F7C0011464068FFF7C8BC00224068FFF7BCBC74
:104F8C00002281F001014068FFF7A6BC00231A46FD
:104F9C0001214068FFF798BC00231A461946406867
:104FAC00FFF78ABC002211464068FFF77DBC002247
:104FBC0011464068FFF768BC002202214068FFF7E9
:104FCC006BBC00231A464068FFF756BC38B5054643
:104FDC0088B104684CB1A3681BB10322214620465A
:104FEC0098471021204600F078F928461421BDE896
:104FFC00384000F072B938BD10B103685B681847CF
:10500C00704710B503680446BBB15868FFF768FBDE
:10501C0078B923685A7C12B95868FFF769FB236882
:10502C005868FFF76DFB20680023236028B1FFF759
:10503C00CDFF206808B1FFF7C9FF204610BD000066
:10504C0038B50C4B03600446D0F8CC0108B1FFF71F
:10505C001EF8D4F8C45135B12846FFF7D2FF04210D
:10506C00284600F03AF9A06808B1FFF7C5FF2046C2
:10507C0038BD00BFB8590D0038B50E4C0E4B23602F
:10508C000025022304F5E4706360A560C4F8C451E4
:10509C00C4F8C851FFF744FB084BC4F8CC5184F852
:1050AC00D05123602046064A0649BDE8384000F03E
:1050BC000FB900BF48E50320205A0D00B8590D0068
:1050CC00C0E303204D500D00002211464068FFF74D
:1050DC00EBBB002211464068FFF706BC00221146CC
:1050EC004068FFF711BC00224068FFF705BC0022A6
:1050FC0081F001014068FFF7EFBB00231A46194607
:10510C004068FFF7E1BB00231A4619464068FFF7D9
:10511C00D3BB002211464068FFF7B6BB0022022128
:10512C004068FFF7B9BB00231A464068FFF7A4BBE1
:10513C00024B04225A60024A1A6070471CE7032093
:10514C00EC590D0000231A464068FFF795BB00226E
:10515C0002214068FFF7A0BB002211464068FFF710
:10516C0093BB002211464068FFF79EBB00231A46F2
:10517C0019464068FFF7A0BB00231A461946406841
:10518C00FFF7A2BB002281F001014068FFF7A4BB2E
:10519C0000224068FFF7B0BB002211464068FFF7C1
:1051AC00B3BB002211464068FFF79EBB2DE9F043CC
:1051BC00002495B016460D460746FFF78DFD214697
:1051CC0020220CA8009400F0ECF940230C9321460B
:1051DC006B460CAA3046FFF75BFA0446002844D114
:1051EC00024601216868FFF75FFB022180462246D8
:1051FC006868FFF759FB009E81462146002E34D08B
:10520C00002932D17368022B02D00A2B09D02AE074
:10521C00B8F1000F27D0716938460431FFF789FDCA
:10522C0020E0B9F1000F1ED07469112201A800F022
:10523C00B8F906238DF8143001AD04F108031834C5
:10524C00186859682A4603C20833A3421546F7D199
:10525C0001A906A807ADFFF74DFD0FCD3C1D0FC4EE
:10526C002B6823700121F669C8E70098FFF708FA4C
:10527C00384615B0BDE8F083024B034A1A60002291
:10528C005A60704724E70320205A0D0070B50C4C6F
:10529C000C4E0D4D00212046FFF7A4FB20460B4C75
:1052AC003246294600F014F801212046FFF79AFBFC
:1052BC00324629462046BDE8704000F009B800BFD0
:1052CC002CE70320C0E30320E1490D003CE7032059
:1052DC000B460146184600F04BB9FEF7D6BE00004F
:1052EC00184B1A68D1075CBF01221A60164B1A685A
:1052FC00D2075CBF01221A60144B1A68D0075CBF3E
:10530C0001221A60124B1A68D1075CBF01221A6085
:10531C00104B1A68D2075CBF01221A600E4B1A6838
:10532C00D0075CBF01221A600C4B1A68D1075CBF16
:10533C0001221A600A4B1A68D2075CBF01221A605C
:10534C00704700BF6CE7032068E7032064E7032085
:10535C0060E703205CE7032058E7032054E70320B1
:10536C0050E70320244B1A68D0075CBF01221A6057
:10537C00224B1A68D1075CBF01221A60204B1A68B5
:10538C00D2075CBF01221A601E4B1A68D0075CBFA3
:10539C0001221A601C4B1A68D1075CBF01221A60EB
:1053AC001A4B1A68D2075CBF01221A60184B1A6894
:1053BC00D0075CBF01221A60164B1A68D1075CBF7C
:1053CC0001221A60144B1A68D2075CBF01221A60C2
:1053DC00124B1A68D0075CBF01221A60104B1A6876
:1053EC00D1075CBF01221A600E4B1A68D2075CBF52
:1053FC0001221A60704700BF9CE7032098E7032046
:10540C0094E7032090E703208CE7032088E7032030
:10541C0084E7032080E703207CE7032078E7032060
:10542C0074E7032070E70320244B1A68D0075CBF95
:10543C0001221A60224B1A68D1075CBF01221A6044
:10544C00204B1A68D2075CBF01221A601E4B1A68E7
:10545C00D0075CBF01221A601C4B1A68D1075CBFD5
:10546C0001221A601A4B1A68D2075CBF01221A601B
:10547C00184B1A68D0075CBF01221A60164B1A68C9
:10548C00D1075CBF01221A60144B1A68D2075CBFAB
:10549C0001221A60124B1A68D0075CBF01221A60F5
:1054AC00104B1A68D1075CBF01221A600E4B1A68A8
:1054BC00D2075CBF01221A60704700BFCCE7032003
:1054CC00C8E70320C4E70320C0E70320BCE70320A0
:1054DC00B8E70320B4E70320B0E70320ACE70320D0
:1054EC00A8E70320A4E70320A0E70320184B1A68C1
:1054FC00D1075CBF01221A60164B1A68D2075CBF39
:10550C0001221A60144B1A68D0075CBF01221A6082
:10551C00124B1A68D1075CBF01221A60104B1A6833
:10552C00D2075CBF01221A600E4B1A68D0075CBF11
:10553C0001221A600C4B1A68D1075CBF01221A6059
:10554C000A4B1A68D2075CBF01221A60704700BF71
:10555C00ECE70320E8E70320E4E70320E0E703207F
:10556C00DCE70320D8E70320D4E70320D0E70320AF
:10557C0010B5054C13462CB10A4601460220AFF378
:10558C00008010BD204610BD0000000010B5431E69
:10559C000A44914204D011F8014B03F8014FF8E78B
:1055AC0010BD02440346934202D003F8011BFAE7F4
:1055BC007047000038B5124B1C68A36B0546D3B975
:1055CC001820FFF7B9F943F20E33A06303804AF6B3
:1055DC00CD33438041F2342383804EF26D63C3801C
:1055EC004DF6EC630381052343810B238381012258
:1055FC000023C0E90423A36B00221D615A6138BD4E
:10560C00BCE30320034613F8012B002AFBD1181A24
:10561C00013870471D400D0059400D0085400D00AC
:10562C0089400D000000000066696E676572746544
:10563C00737400466F756E642066696E6765727070
:10564C0072696E742073656E736F722100446964A5
:10565C00206E6F742066696E642066696E67657271
:10566C007072696E742073656E736F72203A2800C5
:10567C0057616974696E6720666F722076616C6918
:10568C00642066696E67657220746F20656E726F38
:10569C006C6C00496D6167652074616B656E0043CD
:1056AC006F6D6D756E69636174696F6E2065727272
:1056BC006F7200496D6167696E67206572726F72F7
:1056CC0000556E6B6E6F776E206572726F7200494B
:1056DC006D61676520636F6E7665727465640052E8
:1056EC00656D6F76652066696E67657200496D61E0
:1056FC00676520746F6F206D6573737900436F75E8
:10570C006C64206E6F742066696E642066696E67C7
:10571C0065727072696E74206665617475726573FA
:10572C0000506C6163652073616D652066696E67FE
:10573C00657220616761696E005072696E747320C6
:10574C006D617463686564210046696E676572708B
:10575C0072696E747320646964206E6F74206D615D
:10576C007463680053746F7265642100436F756CC9
:10577C0064206E6F742073746F726520696E207470
:10578C00686174206C6F636174696F6E004572722E
:10579C006F722077726974696E6720746F20666C03
:1057AC00617368005479706520696E207468652097
:1057BC004944202320796F752077616E7420746FB3
:1057CC00207361766520746869732066696E6765FD
:1057DC00722061732E2E2E00456E726F6C6C696E8A
:1057EC006720494420230000000000000000000056
:1057FC00C3490D00B9490D00AF490D00A5490D0075
:10580C0099490D008D490D0081490D0079490D0014
:10581C006F490D0065490D00B9510D0000000000E5
:10582C0000000000E1490D00E3490D006261756460
:10583C000053657269616C0053657269616C31006B
:10584C007479706500706172616D00636D640069DC
:10585C006400686E64007374726D0066696C740029
:10586C006C766C0061646448616E646C6572007285
:10587C00656D6F766548616E646C657200656E75FA
:10588C006D48616E646C657273004A534F4E53746D
:10589C007265616D4C6F6748616E646C6572006116
:1058AC00707000253031307520005D2000256400BB
:1058BC002C200028293A2000205B00636F646520AF
:1058CC003D200025690064657461696C73203D207E
:1058DC00000D0A0066006C6E00666E00636F6465F6
:1058EC000064657461696C006E6F6E650074726142
:1058FC00636500696E666F007761726E0070616E31
:10590C00696300616C6C005A00252B3033643A25B6
:10591C003032750025592D256D2D25645425483AB6
:10592C00254D3A2553257A0061736374696D6500C2
:10593C000000000000000000814C0D00714C0D00B7
:10594C00734C0D000000000000000000594D0D00CC
:10595C00A94D0D00B74D0D00414A0D00954D0D00A0
:10596C005B4D0D00714D0D00A34D0D00874D0D00CD
:10597C00554D0D000000000000000000654E0D00AC
:10598C00B54E0D00C34E0D00414A0D00794E0D0071
:10599C009B4E0D00874E0D00AF4E0D00674E0D0057
:1059AC006B4E0D000000000000000000CF4F0D00FA
:1059BC00C54F0D00BB4F0D00B14F0D00A54F0D0095
:1059CC00994F0D008D4F0D00854F0D007B4F0D0035
:1059DC00714F0D00B9510D000000000000000000D7
:1059EC0033510D0029510D001F510D00D5500D00E4
:1059FC0013510D0007510D00FB500D00F3500D001D
:105A0C00E9500D00DF500D00B9510D0000000000F1
:105A1C000000000051510D005B510D0065510D004F
:105A2C006F510D0079510D0085510D0091510D00F4
:105A3C009D510D00A5510D00AF510D00B9510D0038
:105A4C00000000000000000000000000000000004A
:105A5C00000000000000000000000000000000003A
:105A6C00000000000000000000000000000000002A
:105A7C00000000000000000000000000000000001A
:105A8C00000000000000000000000000000000000A
:105A9C0000000000000000000000000000000000FA
:105AAC00430000007D430D0087460D00CD490D00DD
:105ABC00194A0D00314A0D00394B0D00494B0D00B0
:105ACC00814B0D0085500D003D510D0085520D0090
:105ADC0099520D00ED520D0071530D0035540D000F
:045AEC00F9540D005C
:105AF00034590D00000000004C5A0D006C5A0D0086
:105B00008C5A0D00000000000000000000000000A2
:105B100000000000AC5A0D00000000000000000072
:105B20000000000000000000000000000000000075
:105B30000000000000000000000000000000000065
:105B40000000000000000000000000000000000055
:085B5000000000005CE30320EB
:105B5800FFFFFFFF00000102030405060708090A0A
:105B68000B0C0D0E0F101112131415161718191A05
:085B78001B1C1D1E1F2028004C
:045B8000785634120D
:04000003D000401CCD
:00000001FF
